:100000000C942A000C943F000C943F000C943F0089
:100010000C943F000C943F000C943F000C943F0064
:100020000C943F000C943F000C943F000C943F0054
:100030000C943F000C943F000C943F000C943F0044
:100040000C943F000C943F000C943F000C943F0034
:100050000C943F0011241FBECFE5D8E0DEBFCDBF1A
:1000600010E0A0E6B0E0EEEFF1E302C005900D92E3
:10007000A439B107D9F70E94F8160C94FD180C9416
:100080000000EF92FF920F931F937B018C0120E001
:1000900030E040E05FE40E94410388238CF0C80117
:1000A000B70120E030E040E05FE40E94B9010E9427
:1000B000A1039B01AC01205030404040504806C095
:1000C000C801B7010E94A1039B01AC01B901CA019B
:1000D0001F910F91FF90EF900895A0E0B0E0E3E74B
:1000E000F0E00C94C618DC012B01FA019C919230CF
:1000F00008F439C1EB018881823008F433C19430AF
:1001000069F4843009F02FC111969C91119789816F
:10011000981709F428C1ABE6B0E025C1843009F492
:1001200021C18230A9F4923009F01DC19A01AD01BC
:1001300088E0EA010990AE01E90109929E0181502F
:10014000C1F7E201898111969C918923818308C1BD
:10015000923009F407C112962D903C901397EB0151
:100160008A819B811496AD90BD90CD90DC901797BD
:10017000EC80FD800E811F819101281B390BB90194
:1001800037FF04C066277727621B730B6032710547
:100190000CF061C0121613066CF537014801062EEB
:1001A00004C096948794779467940A94D2F721E0D8
:1001B00030E040E050E004C0220F331F441F551FC1
:1001C0006A95D2F721503040404050402E213F21C7
:1001D00040235123211531054105510521F021E02E
:1001E00030E040E050E079018A01E628F72808294C
:1001F00019293CC0232BD1F1260E371E35014601AB
:10020000062E04C096948794779467940A94D2F744
:1002100021E030E040E050E004C0220F331F441FD3
:10022000551F6A95D2F721503040404050402A2156
:100230003B214C215D21211531054105510521F05E
:1002400021E030E040E050E059016A01A628B728DB
:10025000C828D9280BC0821593052CF01C01AA24AC
:10026000BB24650103C0EE24FF24870111969C91F5
:10027000D20111968C91981709F445C0992339F051
:10028000A80197012A193B094C095D0906C0A6017E
:1002900095012E193F09400B510B57FD08C01182E3
:1002A0003382228224833583468357831DC081E0B5
:1002B00081833382228288279927DC01821B930B5A
:1002C000A40BB50B84839583A683B7830DC0220F3F
:1002D000331F441F551F24833583468357838281F0
:1002E000938101979383828324813581468157814D
:1002F000DA01C9010197A109B1098F5F9F4FAF4F83
:10030000BF4328F30BC0918333822282EA0CFB1C8B
:100310000C1D1D1DE482F5820683178383E0808314
:10032000248135814681578157FF1AC0C901AA2708
:1003300097FDA095BA2F81709070A070B0705695FF
:10034000479537952795822B932BA42BB52B848328
:100350009583A683B7838281938101969383828359
:10036000DF0101C0D201CD01CDB7DEB7E2E10C94CF
:10037000E218A0E2B0E0EFEBF1E00C94D218698350
:100380007A838B839C832D833E834F835887E9E058
:10039000EE2EF12CEC0EFD1ECE010196B7010E944F
:1003A000CA048E010F5E1F4FCE010596B8010E9450
:1003B000CA048A8991E089278A8BC701B801AE01F6
:1003C000475E5F4F0E946D000E94F503A096E6E035
:1003D0000C94EE18A0E2B0E0E0EFF1E00C94D2183B
:1003E00069837A838B839C832D833E834F835887D5
:1003F000F9E0EF2EF12CEC0EFD1ECE010196B701B7
:100400000E94CA048E010F5E1F4FCE010596B801EF
:100410000E94CA04C701B801AE01475E5F4F0E9447
:100420006D000E94F503A096E6E00C94EE18A0E2A1
:10043000B0E0EDE1F2E00C94C61869837A838B8317
:100440009C832D833E834F835887CE010196BE0146
:10045000675F7F4F0E94CA04CE010596BE016F5EA2
:100460007F4F0E94CA049985923088F08989823032
:10047000C8F0943019F4823051F404C0843029F467
:10048000923081F48BE690E0C6C0923049F420E0CF
:100490009A858A89981321E02A87CE010996BBC0E4
:1004A000823049F420E09A858A89981321E02A8BCA
:1004B000CE014196B0C02D843E844F8458886D880B
:1004C0007E888F88988CEE24FF248701AA24BB2481
:1004D000650140E050E060E070E0E0E0F0E0C10184
:1004E00081709070892BE9F0E60CF71C081D191D2E
:1004F0009A01AB012A0D3B1D4C1D5D1D80E090E073
:10050000A0E0B0E0E614F7040805190520F481E046
:1005100090E0A0E0B0E0BA01A901480F591F6A1F9E
:100520007B1FAA0CBB1CCC1CDD1C97FE08C081E005
:1005300090E0A0E0B0E0A82AB92ACA2ADB2A3196C6
:10054000E032F10549F0660C771C881C991C569422
:10055000479437942794C3CFFA85EA892B893C893D
:100560008B859C85280F391F2E5F3F4F17C0CA010E
:1005700081709070892B61F016950795F794E79438
:1005800080E090E0A0E0B0E8E82AF92A0A2B1B2BD3
:1005900076956795579547952F5F3F4F77FDE7CF46
:1005A0000CC0440F551F661F771F17FD4160EE0CEE
:1005B000FF1C001F111F21503040403090E05907B0
:1005C00090E0690790E4790760F32B8F3C8FDB01A3
:1005D000CA018F779070A070B07080349105A1052A
:1005E000B10561F447FD0AC0E114F10401051105EC
:1005F00029F0405C5F4F6F4F7F4F40781A8EFE1797
:1006000011F081E08A8F4D8F5E8F6F8F78A383E02A
:10061000898FCE0149960E94F503A096E2E10C94E1
:10062000E218A8E1B0E0E7E1F3E00C94D2186983A6
:100630007A838B839C832D833E834F83588789E005
:10064000E82EF12CEC0EFD1ECE010196B7010E94A2
:10065000CA048E010F5E1F4FCE010596B8010E949D
:10066000CA048985823040F08989823028F0C70128
:10067000B8010E94420501C08FEF6896E6E00C9435
:10068000EE18A8E1B0E0E7E4F3E00C94D218698337
:100690007A838B839C832D833E834F83588789E0A5
:1006A000E82EF12CEC0EFD1ECE010196B7010E9442
:1006B000CA048E010F5E1F4FCE010596B8010E943D
:1006C000CA048985823040F08989823028F0C701C8
:1006D000B8010E94420501C08FEF6896E6E00C94D5
:1006E000EE18A8E1B0E0E7E7F3E00C94D2186983D4
:1006F0007A838B839C832D833E834F83588789E045
:10070000E82EF12CEC0EFD1ECE010196B7010E94E1
:10071000CA048E010F5E1F4FCE010596B8010E94DC
:10072000CA048985823040F08989823028F0C70167
:10073000B8010E94420501C081E06896E6E00C9491
:10074000EE18ACE0B0E0E7EAF3E00C94D618698369
:100750007A838B839C83CE010196BE016B5F7F4FB2
:100760000E94CA048D81823061F1823050F1843060
:1007700021F48E81882351F12EC02F81388537FDD9
:1007800020C06E812F3131051CF06623F9F023C0A3
:100790008EE190E0821B930B29853A854B855C8521
:1007A00004C056954795379527958A95D2F76623C5
:1007B000B1F050954095309521953F4F4F4F5F4F89
:1007C0000EC020E030E040E050E009C02FEF3FEFE6
:1007D0004FEF5FE704C020E030E040E050E8B901AF
:1007E000CA012C96E2E00C94F218DF92EF92FF928D
:1007F0000F931F93FC01E480F58006811781D1805F
:100800008081823048F480E090E0A0E1B0E0E82A06
:10081000F92A0A2B1B2BA5C0843009F49FC0823013
:1008200021F4EE24FF24870105C0E114F104010541
:10083000110519F4E0E0F0E096C0628173819FEF4A
:10084000623879070CF05BC022E83FEF261B370BBC
:100850002A3131052CF020E030E040E050E02AC0A1
:10086000B801A701022E04C0769567955795479564
:100870000A94D2F781E090E0A0E0B0E004C0880FD5
:10088000991FAA1FBB1F2A95D2F70197A109B10989
:100890008E219F21A023B1230097A105B10521F04E
:1008A00081E090E0A0E0B0E09A01AB01282B392B69
:1008B0004A2B5B2BDA01C9018F779070A070B07062
:1008C00080349105A105B10539F427FF09C0205CEA
:1008D0003F4F4F4F5F4F04C0215C3F4F4F4F5F4F23
:1008E000E0E0F0E02030A0E03A07A0E04A07A0E412
:1008F0005A0710F0E1E0F0E079018A0127C0603882
:10090000710564F5FB01E158FF4FD801C7018F77EE
:100910009070A070B07080349105A105B10539F4D4
:10092000E7FE0DC080E490E0A0E0B0E004C08FE3FB
:1009300090E0A0E0B0E0E80EF91E0A1F1B1F17FFB1
:1009400005C016950795F794E794319687E01695BC
:100950000795F794E7948A95D1F705C0EE24FF2414
:100960008701EFEFF0E06E2F679566276795902F70
:100970009F77D794DD24D7948E2F8695492F462BC9
:10098000582F5D29B701CA011F910F91FF90EF9079
:10099000DF900895FC01DB01408151812281622FAB
:1009A0006F7770E0221F2227221F9381892F880FE3
:1009B000822B282F30E0991F9927991F11969C931D
:1009C000119721153105A9F54115510561057105ED
:1009D00011F482E037C082E89FEF13969C938E93C8
:1009E00012979A01AB0167E0220F331F441F551F76
:1009F0006A95D1F783E08C930DC0220F331F441FFB
:100A0000551F12968D919C911397019713969C9365
:100A10008E931297203080E0380780E0480780E40A
:100A2000580758F314962D933D934D935C93179765
:100A300008952F3F310579F4411551056105710580
:100A400019F484E08C93089564FF03C081E08C93D3
:100A500012C01C9210C02F57304013963C932E9317
:100A6000129783E08C9387E0440F551F661F771F12
:100A70008A95D1F7706414964D935D936D937C9332
:100A8000179708951F93DC01FB019C91923008F4A5
:100A900047C08081823008F443C0943051F41196ED
:100AA0001C91843099F58181682F70E0611B710978
:100AB0003FC0843021F0923031F48230B9F181812D
:100AC000882389F12DC011961C9111978230F1F085
:100AD00081811817D9F412962D913C911397828138
:100AE00093818217930794F028173907BCF0149666
:100AF0008D919D910D90BC91A02D248135814681D1
:100B00005781281739074A075B0718F4112341F06A
:100B10000AC082179307A407B50740F4112319F000
:100B200061E070E005C06FEF7FEF02C060E070E051
:100B3000CB011F910895DF93CF9300D0CDB7DEB7DF
:100B400089838981803330F089818A3318F481E088
:100B50008A8301C01A828A810F900F90CF91DF9112
:100B60000895DF93CF9300D0CDB7DEB78983898115
:100B70008B3249F089818D3231F089818F3219F0C1
:100B800089818A3219F481E08A8301C01A828A81BC
:100B90000F900F90CF91DF910895DF93CF930F9235
:100BA000CDB7DEB781E08983EAE3F0E08CE48083AF
:100BB000E7E3F0E08CE48083E4E3F0E08CE480831E
:100BC000E1E3F0E08CE48083EBE3F0E084E7808312
:100BD000E8E3F0E084E78083E5E3F0E084E7808306
:100BE000E2E3F0E084E78083198289810F90CF915E
:100BF000DF910895DF93CF9300D000D00F92CDB74F
:100C0000DEB78A836B8381E089838A818430A0F593
:100C10008A81282F30E03D832C838C819D81813017
:100C20009105D1F02C813D81223031052CF48C814D
:100C30009D81009761F01EC02C813D8122303105DD
:100C400081F08C819D818330910581F013C0EBE3AD
:100C5000F0E08B8180830EC0E8E3F0E08B8180833D
:100C600009C0E5E3F0E08B81808304C0E2E3F0E0BB
:100C70008B818083198202C083E0898389810F90F0
:100C80000F900F900F900F90CF91DF910895DF9309
:100C9000CF9300D000D00F92CDB7DEB78A836B839D
:100CA00081E089838A818430A0F58A81282F30E011
:100CB0003D832C838C819D8181309105D1F02C81E5
:100CC0003D81223031052CF48C819D81009761F0AB
:100CD0001EC02C813D812230310581F08C819D81A7
:100CE0008330910581F013C0EAE3F0E08B818083CB
:100CF0000EC0E7E3F0E08B81808309C0E4E3F0E01D
:100D00008B81808304C0E1E3F0E08B8180831982D2
:100D100002C083E0898389810F900F900F900F901C
:100D20000F90CF91DF910895DF93CF9300D000D043
:100D300000D0CDB7DEB78A837C836B8381E0898363
:100D40008B819C81009709F442C08A818430E0F550
:100D50008A81282F30E03E832D838D819E818130D2
:100D60009105E1F02D813E81223031052CF48D81F9
:100D70009E81009761F026C02D813E812230310591
:100D8000A1F08D819E8183309105B1F01BC0E9E314
:100D9000F0E08081EB81FC81808314C0E6E3F0E029
:100DA0008081EB81FC8180830DC0E3E3F0E08081F2
:100DB000EB81FC81808306C0E0E3F0E08081EB8181
:100DC000FC818083198205C083E0898302C082E0B0
:100DD0008983898126960FB6F894DEBF0FBECDBFFA
:100DE000CF91DF910895DF93CF9300D000D0CDB79E
:100DF000DEB78A8381E089838A81843008F040C02D
:100E00008A81282F30E03C832B838B819C81813029
:100E10009105E9F02B813C81223031052CF48B8146
:100E20009C81009761F02AC02B813C8122303105E2
:100E3000B1F08B819C8183309105C9F01FC0ABE379
:100E4000B0E0EBE3F0E0808180958C9317C0A8E3DD
:100E5000B0E0E8E3F0E0808180958C930FC0A5E3DB
:100E6000B0E0E5E3F0E0808180958C9307C0A2E3D9
:100E7000B0E0E2E3F0E0808180958C93198202C0BB
:100E800083E0898389810F900F900F900F90CF910D
:100E9000DF910895DF93CF9300D000D000D0CDB77D
:100EA000DEB78A836B834C8381E089838A818430B7
:100EB00008F0D0C08B81883008F0CCC08C818230A3
:100EC00008F0C8C08A81282F30E03E832D836D81D1
:100ED0007E816130710509F441C08D819E8182302F
:100EE000910534F42D813E812115310571F0B0C09A
:100EF0006D817E816230710509F459C08D819E81BA
:100F00008330910509F47CC0A3C0ABE3B0E0EBE310
:100F1000F0E08081482F8B81282F30E081E090E045
:100F200002C0880F991F2A95E2F7809584238C933D
:100F3000ABE3B0E0EBE3F0E08081482F8C81282F19
:100F400030E08B81882F90E0B90102C0660F771FD7
:100F50008A95E2F7CB01842B8C937AC0A8E3B0E0AA
:100F6000E8E3F0E08081482F8B81282F30E081E09A
:100F700090E002C0880F991F2A95E2F7809584239C
:100F80008C93A8E3B0E0E8E3F0E08081482F8C8107
:100F9000282F30E08B81882F90E0B90102C0660FC6
:100FA000771F8A95E2F7CB01842B8C9351C0A5E380
:100FB000B0E0E5E3F0E08081482F8B81282F30E01E
:100FC00081E090E002C0880F991F2A95E2F7809592
:100FD00084238C93A5E3B0E0E5E3F0E08081482F23
:100FE0008C81282F30E08B81882F90E0B90102C0DE
:100FF000660F771F8A95E2F7CB01842B8C9328C06C
:10100000A2E3B0E0E2E3F0E08081482F8B81282F5B
:1010100030E081E090E002C0880F991F2A95E2F746
:10102000809584238C93A2E3B0E0E2E3F0E080813A
:10103000482F8C81282F30E08B81882F90E0B901D8
:1010400002C0660F771F8A95E2F7CB01842B8C9341
:10105000198202C083E08983898126960FB6F894AD
:10106000DEBF0FBECDBFCF91DF910895DF93CF9349
:1010700000D000D000D0CDB7DEB78A836B834C831D
:1010800081E089838A81843008F0D0C08B818830E8
:1010900008F0CCC08C81823008F0C8C08A81282F2B
:1010A00030E03E832D836D817E816130710509F4CE
:1010B00041C08D819E818230910534F42D813E8125
:1010C0002115310571F0B0C06D817E8162307105EE
:1010D00009F459C08D819E818330910509F47CC04B
:1010E000A3C0AAE3B0E0EAE3F0E08081482F8B815F
:1010F000282F30E081E090E002C0880F991F2A95E8
:10110000E2F7809584238C93AAE3B0E0EAE3F0E071
:101110008081482F8C81282F30E08B81882F90E0B0
:10112000B90102C0660F771F8A95E2F7CB01842BC5
:101130008C937AC0A7E3B0E0E7E3F0E08081482F2A
:101140008B81282F30E081E090E002C0880F991F4A
:101150002A95E2F7809584238C93A7E3B0E0E7E338
:10116000F0E08081482F8C81282F30E08B81882F00
:1011700090E0B90102C0660F771F8A95E2F7CB01B4
:10118000842B8C9351C0A4E3B0E0E4E3F0E08081D1
:10119000482F8B81282F30E081E090E002C0880F3B
:1011A000991F2A95E2F7809584238C93A4E3B0E0FD
:1011B000E4E3F0E08081482F8C81282F30E08B81A0
:1011C000882F90E0B90102C0660F771F8A95E2F779
:1011D000CB01842B8C9328C0A1E3B0E0E1E3F0E0E5
:1011E0008081482F8B81282F30E081E090E002C081
:1011F000880F991F2A95E2F7809584238C93A1E3A9
:10120000B0E0E1E3F0E08081482F8C81282F30E0CE
:101210008B81882F90E0B90102C0660F771F8A95F5
:10122000E2F7CB01842B8C93198202C083E089837F
:10123000898126960FB6F894DEBF0FBECDBFCF9141
:10124000DF910895DF93CF93CDB7DEB727970FB621
:10125000F894DEBF0FBECDBF8A836B835D834C8362
:1012600081E089838C819D81009709F47DC08A810A
:10127000843008F076C08B81883008F072C08A8193
:10128000282F30E03F832E834E815F81413051050E
:1012900059F18E819F818230910534F42E813F81F6
:1012A0002115310569F05BC04E815F8142305105E7
:1012B00079F18E819F818330910509F43DC04FC043
:1012C000E9E3F0E08081282F30E08B81882F90E0E7
:1012D000A90102C0559547958A95E2F7CA01817028
:1012E000EC81FD8180833BC0E6E3F0E08081282F24
:1012F00030E08B81882F90E0A90102C05595479579
:101300008A95E2F7CA018170EC81FD81808327C054
:10131000E3E3F0E08081282F30E08B81882F90E09C
:10132000A90102C0559547958A95E2F7CA018170D7
:10133000EC81FD81808313C0E0E3F0E08081282F01
:1013400030E08B81882F90E0A90102C05595479528
:101350008A95E2F7CA018170EC81FD818083198250
:1013600005C083E0898302C082E089838981279652
:101370000FB6F894DEBF0FBECDBFCF91DF910895B9
:10138000DF93CF9300D000D00F92CDB7DEB78A8322
:101390006B8381E089838A81843008F074C08B81FB
:1013A000883008F070C08A81282F30E03D832C837C
:1013B0008C819D818130910549F12C813D812230C4
:1013C00031052CF48C819D81009761F05AC02C81ED
:1013D0003D812230310571F18C819D8183309105F1
:1013E000E9F14FC0ABE3B0E0EBE3F0E08081482FE0
:1013F0008B81282F30E081E090E0022E02C0880F20
:10140000991F0A94E2F784278C933BC0A8E3B0E0CD
:10141000E8E3F0E08081482F8B81282F30E081E0E5
:1014200090E0022E02C0880F991F0A94E2F78427E9
:101430008C9327C0A5E3B0E0E5E3F0E08081482F7E
:101440008B81282F30E081E090E0022E02C0880FCF
:10145000991F0A94E2F784278C9313C0A2E3B0E0AB
:10146000E2E3F0E08081482F8B81282F30E081E09B
:1014700090E0022E02C0880F991F0A94E2F7842799
:101480008C93198202C083E0898389810F900F9029
:101490000F900F900F90CF91DF910895DF93CF932E
:1014A0000F92CDB7DEB781E0898382E060E040E053
:1014B0000E94360882E061E040E00E94360882E047
:1014C00062E040E00E94360882E063E040E00E9473
:1014D000360883E060E041E00E94360883E061E086
:1014E00041E00E94360883E062E041E00E94360855
:1014F00083E063E041E00E94360882E060E041E082
:101500000E944A0782E061E041E00E944A0782E0CF
:1015100062E041E00E944A0782E063E041E00E940D
:101520004A0783E060E041E00E944A0783E061E00F
:1015300041E00E944A0783E062E041E00E944A07DE
:1015400083E063E041E00E944A07198289810F909D
:10155000CF91DF910895DF93CF93CDB7DEB7659735
:101560000FB6F894DEBF0FBECDBF9C8B8B8B81E096
:10157000898B8B899C89009709F416C1188A1F866C
:10158000EB89FC898FEF8083188A09C18889882FAD
:1015900090E0FC01E158FF4F20818889882F90E07E
:1015A000FC01E958FF4F9081822F692F40E00E9493
:1015B0004A071F86DAC08F85882F90E0FC01E55826
:1015C000FF4F40818F85882F90E0FC01ED58FF4F41
:1015D00090819E012E5E3F4F842F692FA9010E94AA
:1015E00022098A89882309F0BDC080E090E0A0E24A
:1015F000B1E48B879C87AD87BE876B857C858D85A5
:101600009E8520E030E04AE753E40E941702DC01A7
:10161000CB018F839887A987BA876F817885898561
:101620009A8520E030E040E85FE30E947103882360
:101630002CF481E090E09E838D833FC06F8178859C
:1016400089859A8520E03FEF4FE757E40E94110318
:1016500018164CF56B857C858D859E8520E030E0E5
:1016600040E251E40E941702DC01CB01BC01CD0134
:101670000E944100DC01CB019E838D830FC089E174
:1016800090E09C838B838B819C810197F1F79C83F5
:101690008B838D819E8101979E838D838D819E8119
:1016A000009769F714C06F81788589859A850E94B3
:1016B0004100DC01CB019E838D838D819E819A83C5
:1016C000898389819A810197F1F79A8389838F852C
:1016D000882F90E0FC01E558FF4F40818F85882FCF
:1016E00090E0FC01ED58FF4F90819E012E5E3F4F30
:1016F000842F692FA9010E9422098A89882391F5E4
:1017000016C08F85882F90E0FC01E558FF4F40817F
:101710008F85882F90E0FC01ED58FF4F90819E014E
:101720002E5E3F4F842F692FA9010E9422098A89CA
:10173000882339F38F85482F50E08889282F30E09F
:10174000CA01880F991F880F991F820F931FFC01F0
:10175000ED57FF4F8081EB89FC898083198A898945
:101760008D8B26C08F858F5F8F878F85843008F49F
:1017700022CF8889882F90E0FC01E158FF4F20811B
:101780008889882F90E0FC01E958FF4F9081822FD3
:10179000692F41E00E944A0788898F5F888B88897A
:1017A000843008F4F3CE02C082E0898B89898D8B66
:1017B0008D8965960FB6F894DEBF0FBECDBFCF9171
:1017C000DF9108950F931F93DF93CF93CDB7DEB7CB
:1017D000C555D0400FB6F894DEBF0FBECDBFFE0199
:1017E000EB5AFF4F81E08083FE01EF5AFF4F80E00C
:1017F00090E0ACE0B2E480839183A283B3838E0156
:10180000035B1F4FFE01EF5AFF4F608171818281A0
:10181000938120E030E04AE753E40E941702DC01A4
:10182000CB01F80180839183A283B383FE01E35B44
:10183000FF4F608171818281938120E030E040E838
:101840005FE30E947103882344F4FE01E55BFF4FD0
:1018500081E090E09183808364C0FE01E35BFF4FF1
:10186000608171818281938120E03FEF4FE757E4EF
:101870000E94110318160CF043C0FE01EF5AFF4FEF
:10188000608171818281938120E030E040E251E407
:101890000E941702DC01CB018E01055B1F4FBC01CA
:1018A000CD010E944100DC01CB01F80191838083CE
:1018B0001FC0FE01E75BFF4F89E190E091838083C9
:1018C000FE01E75BFF4F808191810197F1F7FE01F7
:1018D000E75BFF4F91838083DE01A55BBF4FFE0175
:1018E000E55BFF4F80819181019711969C938E93C8
:1018F000FE01E55BFF4F808191810097D1F627C003
:101900008E01055B1F4FFE01E35BFF4F608171811C
:10191000828193810E944100DC01CB01F801918317
:101920008083DE01A95BBF4FFE01E55BFF4F808135
:1019300091818D939C93FE01E95BFF4F80819181A2
:101940000197F1F7FE01E95BFF4F9183808380E00F
:1019500060E041E00E94360880E065E041E00E94DE
:10196000360880E067E041E00E94360881E060E0F0
:1019700041E00E94360880E063E041E00E943608C2
:1019800081E061E041E00E94360881E062E041E0F0
:101990000E943608FE01ED5BFF4F80E090E0ACE076
:1019A000B2E480839183A283B3838E01015C1F4FD5
:1019B000FE01ED5BFF4F608171818281938120E0A8
:1019C00030E04AE753E40E941702DC01CB01F80142
:1019D00080839183A283B383FE01FF96608171812E
:1019E0008281938120E030E040E85FE30E94710350
:1019F00088232CF481E090E09EAF8DAF46C0FE01BD
:101A0000FF96608171818281938120E03FEF4FE7F3
:101A100057E40E941103181664F5FE01ED5BFF4FB9
:101A2000608171818281938120E030E040E251E465
:101A30000E941702DC01CB01BC01CD010E944100D4
:101A4000DC01CB019EAF8DAF0FC089E190E09CAF70
:101A50008BAF8BAD9CAD0197F1F79CAF8BAF8DAD8C
:101A60009EAD01979EAF8DAF8DAD9EAD009769F78E
:101A700016C0FE01FF9660817181828193810E9470
:101A80004100DC01CB019EAF8DAF8DAD9EAD9AAF15
:101A900089AF89AD9AAD0197F1F79AAF89AF80E030
:101AA00090E0ACE0B2E48DAB9EABAFABB8AF6DA94C
:101AB0007EA98FA998AD20E030E04AE753E40E9468
:101AC0001702DC01CB0189AB9AABABABBCAB69A90C
:101AD0007AA98BA99CA920E030E040E85FE30E944E
:101AE000710388232CF481E090E098AB8FA73FC06E
:101AF00069A97AA98BA99CA920E03FEF4FE757E499
:101B00000E94110318164CF56DA97EA98FA998ADF6
:101B100020E030E040E251E40E941702DC01CB01FA
:101B2000BC01CD010E944100DC01CB0198AB8FA725
:101B30000FC089E190E09EA78DA78DA59EA5019776
:101B4000F1F79EA78DA78FA598A9019798AB8FA7AE
:101B50008FA598A9009769F714C069A97AA98BA9DC
:101B60009CA90E944100DC01CB0198AB8FA78FA5F7
:101B700098A99CA78BA78BA59CA50197F1F79CA77B
:101B80008BA788E20E94691380E090E0A0E8BFE3A1
:101B90008FA398A7A9A7BAA76FA178A589A59AA589
:101BA00020E030E04AE753E40E941702DC01CB0159
:101BB0008BA39CA3ADA3BEA36BA17CA18DA19EA171
:101BC00020E030E040E85FE30E94710388232CF4BA
:101BD00081E090E09AA389A33FC06BA17CA18DA175
:101BE0009EA120E03FEF4FE757E40E941103181633
:101BF0004CF56FA178A589A59AA520E030E040E2D8
:101C000051E40E941702DC01CB01BC01CD010E940E
:101C10004100DC01CB019AA389A30FC089E190E0C8
:101C200098A38F8F8F8D98A10197F1F798A38F8F2D
:101C300089A19AA101979AA389A389A19AA1009742
:101C400069F714C06BA17CA18DA19EA10E944100E7
:101C5000DC01CB019AA389A389A19AA19E8F8D8FC4
:101C60008D8D9E8D0197F1F79E8F8D8F8FE00E9455
:101C7000691380E090E0A0E8BFE3898F9A8FAB8F73
:101C8000BC8F698D7A8D8B8D9C8D20E030E04AE78A
:101C900053E40E941702DC01CB018D8B9E8BAF8B2E
:101CA000B88F6D897E898F89988D20E030E040E87B
:101CB0005FE30E94710388232CF481E090E09C8B09
:101CC0008B8B3FC06D897E898F89988D20E03FEF97
:101CD0004FE757E40E94110318164CF5698D7A8D71
:101CE0008B8D9C8D20E030E040E251E40E94170291
:101CF000DC01CB01BC01CD010E944100DC01CB0124
:101D00009C8B8B8B0FC089E190E09A8B898B8989A2
:101D10009A890197F1F79A8B898B8B899C89019716
:101D20009C8B8B8B8B899C89009769F714C06D897C
:101D30007E898F89988D0E944100DC01CB019C8BAC
:101D40008B8B8B899C89988B8F878F85988901973E
:101D5000F1F7988B8F8781E00E94691380E090E013
:101D6000A0E0B0E48B879C87AD87BE876B857C85C0
:101D70008D859E8520E030E04AE753E40E941702FB
:101D8000DC01CB018F839887A987BA876F8178851B
:101D900089859A8520E030E040E85FE30E94710386
:101DA00088232CF481E090E09E838D833FC06F8177
:101DB000788589859A8520E03FEF4FE757E40E94B8
:101DC000110318164CF56B857C858D859E8520E06A
:101DD00030E040E251E40E941702DC01CB01BC017B
:101DE000CD010E944100DC01CB019E838D830FC099
:101DF00089E190E09C838B838B819C810197F1F733
:101E00009C838B838D819E8101979E838D838D81A1
:101E10009E81009769F714C06F81788589859A85BE
:101E20000E944100DC01CB019E838D838D819E81C8
:101E30009A83898389819A810197F1F79A838983AB
:101E400086E00E946913FE01EB5AFF4F1082FE01EB
:101E5000EB5AFF4F8081CB5ADF4F0FB6F894DEBFAD
:101E60000FBECDBFCF91DF911F910F9108950F93BA
:101E70001F93DF93CF93CDB7DEB7C555D0400FB6D4
:101E8000F894DEBF0FBECDBFFE01EB5AFF4F80833B
:101E900080E065E040E00E944A0780E067E040E0C3
:101EA0000E944A07FE01EB5AFF4F8081982F991F2D
:101EB0009927991F81E060E0492F0E944A07FE019F
:101EC000EB5AFF4F80818295869586958370982F77
:101ED000917080E063E0492F0E944A07FE01EB5AAF
:101EE000FF4F8081829586958770982F917081E051
:101EF00061E0492F0E944A07FE01EB5AFF4F8081A3
:101F000082958F70982F917081E062E0492F0E9436
:101F10004A07FE01EB5AFF4F8081883209F079C1F0
:101F200080E067E041E00E944A07FE01EF5AFF4F60
:101F300080E090E0A0E2B1E480839183A283B38348
:101F40008E01035B1F4FFE01EF5AFF4F60817181CD
:101F50008281938120E030E04AE753E40E94170237
:101F6000DC01CB01F80180839183A283B383FE015E
:101F7000E35BFF4F608171818281938120E030E0DB
:101F800040E85FE30E947103882344F4FE01E55BAF
:101F9000FF4F81E090E09183808364C0FE01E35BAA
:101FA000FF4F608171818281938120E03FEF4FE795
:101FB00057E40E94110318160CF043C0FE01EF5ABB
:101FC000FF4F608171818281938120E030E040E2A7
:101FD00051E40E941702DC01CB018E01055B1F4F0B
:101FE000BC01CD010E944100DC01CB01F8019183CD
:101FF00080831FC0FE01E75BFF4F89E190E0918382
:102000008083FE01E75BFF4F808191810197F1F7AB
:10201000FE01E75BFF4F91838083DE01A55BBF4F2D
:10202000FE01E55BFF4F80819181019711969C93A2
:102030008E93FE01E55BFF4F808191810097D1F681
:1020400027C08E01055B1F4FFE01E35BFF4F6081E0
:102050007181828193810E944100DC01CB01F801F2
:1020600091838083DE01A95BBF4FFE01E55BFF4FDB
:10207000808191818D939C93FE01E95BFF4F80816C
:1020800091810197F1F7FE01E95BFF4F9183808316
:1020900080E067E040E00E944A07FE01ED5BFF4FF1
:1020A00080E090E0A8E4B2E480839183A283B383CC
:1020B0008E01015C1F4FFE01ED5BFF4F608171815E
:1020C0008281938120E030E04AE753E40E941702C6
:1020D000DC01CB01F80180839183A283B383FE01ED
:1020E000FF96608171818281938120E030E040E839
:1020F0005FE30E94710388232CF481E090E09EAF9F
:102100008DAF46C0FE01FF9660817181828193810F
:1021100020E03FEF4FE757E40E941103181664F5E3
:10212000FE01ED5BFF4F608171818281938120E030
:1021300030E040E251E40E941702DC01CB01BC0117
:10214000CD010E944100DC01CB019EAF8DAF0FC0DD
:1021500089E190E09CAF8BAF8BAD9CAD0197F1F71F
:102160009CAF8BAF8DAD9EAD01979EAF8DAF8DAD0A
:102170009EAD009769F716C0FE01FF9660817181E0
:10218000828193810E944100DC01CB019EAF8DAF23
:102190008DAD9EAD9AAF89AF89AD9AAD0197F1F73C
:1021A0009AAF89AFFE01EB5AFF4F8081982F991F9C
:1021B0009927991F81E060E0492F0E944A07FE019C
:1021C000EB5AFF4F80818295869586958370982F74
:1021D000917080E063E0492F0E944A07FE01EB5AAC
:1021E000FF4F8081829586958770982F917081E04E
:1021F00061E0492F0E944A07FE01EB5AFF4F8081A0
:1022000082958F70982F917081E062E0492F0E9433
:102210004A0780E067E041E00E944A0780E090E0E2
:10222000A0E2B1E48DAB9EABAFABB8AF6DA97EA918
:102230008FA998AD20E030E04AE753E40E941702EE
:10224000DC01CB0189AB9AABABABBCAB69A97AA97A
:102250008BA99CA920E030E040E85FE30E94710375
:1022600088232CF481E090E098AB8FA73FC069A948
:102270007AA98BA99CA920E03FEF4FE757E40E9481
:10228000110318164CF56DA97EA98FA998AD20E011
:1022900030E040E251E40E941702DC01CB01BC01B6
:1022A000CD010E944100DC01CB0198AB8FA70FC08C
:1022B00089E190E09EA78DA78DA59EA50197F1F7D6
:1022C0009EA78DA78FA598A9019798AB8FA78FA5DB
:1022D00098A9009769F714C069A97AA98BA99CA944
:1022E0000E944100DC01CB0198AB8FA78FA598A974
:1022F0009CA78BA78BA59CA50197F1F79CA78BA703
:1023000080E067E040E00E944A0780E090E0A0E2C1
:10231000B1E48FA398A7A9A7BAA76FA178A589A5AB
:102320009AA520E030E04AE753E40E941702DC015E
:10233000CB018BA39CA3ADA3BEA36BA17CA18DA15C
:102340009EA120E030E040E85FE30E947103882313
:102350002CF481E090E09AA389A33FC06BA17CA1FB
:102360008DA19EA120E03FEF4FE757E40E941103AB
:1023700018164CF56FA178A589A59AA520E030E044
:1023800040E251E40E941702DC01CB01BC01CD0107
:102390000E944100DC01CB019AA389A30FC089E10F
:1023A00090E098A38F8F8F8D98A10197F1F798A354
:1023B0008F8F89A19AA101979AA389A389A19AA134
:1023C000009769F714C06BA17CA18DA19EA10E940A
:1023D0004100DC01CB019AA389A389A19AA19E8F18
:1023E0008D8F8D8D9E8D0197F1F79E8F8D8FFE01C4
:1023F000EB5AFF4F8081869586958695982F917030
:1024000081E060E0492F0E944A07FE01EB5AFF4F2E
:10241000808186958695982F917080E063E0492FA2
:102420000E944A07FE01EB5AFF4F80818695982F44
:10243000917081E061E0492F0E944A07FE01EB5A4A
:10244000FF4F8081982F917081E062E0492F0E94B8
:102450004A0780E067E041E00E944A0780E090E0A0
:10246000A0E2B1E4898F9A8FAB8FBC8F698D7A8D92
:102470008B8D9C8D20E030E04AE753E40E941702E8
:10248000DC01CB018D8B9E8BAF8BB88F6D897E89E4
:102490008F89988D20E030E040E85FE30E9471036F
:1024A00088232CF481E090E09C8B8B8B3FC06D895E
:1024B0007E898F89988D20E03FEF4FE757E40E9497
:1024C000110318164CF5698D7A8D8B8D9C8D20E04B
:1024D00030E040E251E40E941702DC01CB01BC0174
:1024E000CD010E944100DC01CB019C8B8B8B0FC086
:1024F00089E190E09A8B898B89899A890197F1F714
:102500009A8B898B8B899C8901979C8B8B8B8B8970
:102510009C89009769F714C06D897E898F89988D91
:102520000E944100DC01CB019C8B8B8B8B899C89A9
:10253000988B8F878F8598890197F1F7988B8F8774
:1025400080E067E040E00E944A0780E090E0A0E27F
:10255000B1E48B879C87AD87BE876B857C858D8535
:102560009E8520E030E04AE753E40E941702DC0138
:10257000CB018F839887A987BA876F8178858985F2
:102580009A8520E030E040E85FE30E9471038823F1
:102590002CF481E090E09E838D833FC06F8178852D
:1025A00089859A8520E03FEF4FE757E40E941103A9
:1025B00018164CF56B857C858D859E8520E030E076
:1025C00040E251E40E941702DC01CB01BC01CD01C5
:1025D0000E944100DC01CB019E838D830FC089E105
:1025E00090E09C838B838B819C810197F1F79C8386
:1025F0008B838D819E8101979E838D838D819E81AA
:10260000009769F714C06F81788589859A850E9443
:102610004100DC01CB019E838D838D819E819A8355
:10262000898389819A810197F1F79A838983CB5AAB
:10263000DF4F0FB6F894DEBF0FBECDBFCF91DF9155
:102640001F910F910895DF93CF9300D000D0CDB7A5
:10265000DEB78B8381E08A8380E060E041E00E9406
:102660004A0719828B810E94370F8981813019F4C2
:102670008A818C8303C01A828A818C838C810F901B
:102680000F900F900F90CF91DF910895DF93CF932C
:1026900000D000D0CDB7DEB78B8381E08A8319826A
:1026A00080E060E040E00E944A078B810E94370F83
:1026B0008981813019F48A818C8303C01A828A81CE
:1026C0008C838C810F900F900F900F90CF91DF91A2
:1026D0000895DF93CF93CDB7DEB7AB970FB6F894DD
:1026E000DEBF0FBECDBF8BA780E060E040E00E9460
:1026F0004A0780E065E040E00E944A0780E067E02A
:1027000040E00E944A078BA5982F991F9927991F8F
:1027100081E060E0492F0E944A078BA5829586954B
:1027200086958370982F917080E063E0492F0E9416
:102730004A078BA5829586958770982F917081E0C6
:1027400061E0492F0E944A078BA582958F70982FD0
:10275000917081E062E0492F0E944A078BA5883280
:1027600009F0A7C080E067E041E00E944A0780E0EE
:1027700090E0A0E2B1E48FA398A7A9A7BAA76FA1A0
:1027800078A589A59AA520E030E04AE753E40E94A5
:102790001702DC01CB018BA39CA3ADA3BEA36BA14D
:1027A0007CA18DA19EA120E030E040E85FE30E9483
:1027B000710388232CF481E090E09AA389A33FC0A1
:1027C0006BA17CA18DA19EA120E03FEF4FE757E4D4
:1027D0000E94110318164CF56FA178A589A59AA53A
:1027E00020E030E040E251E40E941702DC01CB011E
:1027F000BC01CD010E944100DC01CB019AA389A359
:102800000FC089E190E098A38F8F8F8D98A10197D9
:10281000F1F798A38F8F89A19AA101979AA389A311
:1028200089A19AA1009769F714C06BA17CA18DA121
:102830009EA10E944100DC01CB019AA389A389A13A
:102840009AA19E8F8D8F8D8D9E8D0197F1F79E8F12
:102850008D8F80E067E040E00E944A078BA5982FAB
:10286000991F9927991F81E060E0492F0E944A072C
:102870008BA58295869586958370982F917080E0C0
:1028800063E0492F0E944A078BA582958695877041
:10289000982F917081E061E0492F0E944A078BA533
:1028A00082958F70982F917081E062E0492F0E948D
:1028B0004A0780E067E041E00E944A0780E090E03C
:1028C000A0E2B1E4898F9A8FAB8FBC8F698D7A8D2E
:1028D0008B8D9C8D20E030E04AE753E40E94170284
:1028E000DC01CB018D8B9E8BAF8BB88F6D897E8980
:1028F0008F89988D20E030E040E85FE30E9471030B
:1029000088232CF481E090E09C8B8B8B3FC06D89F9
:102910007E898F89988D20E03FEF4FE757E40E9432
:10292000110318164CF5698D7A8D8B8D9C8D20E0E6
:1029300030E040E251E40E941702DC01CB01BC010F
:10294000CD010E944100DC01CB019C8B8B8B0FC021
:1029500089E190E09A8B898B89899A890197F1F7AF
:102960009A8B898B8B899C8901979C8B8B8B8B890C
:102970009C89009769F714C06D897E898F89988D2D
:102980000E944100DC01CB019C8B8B8B8B899C8945
:10299000988B8F878F8598890197F1F7988B8F8710
:1029A00080E067E040E00E944A078BA58695869507
:1029B0008695982F917081E060E0492F0E944A0728
:1029C0008BA586958695982F917080E063E0492FBE
:1029D0000E944A078BA58695982F917081E061E04F
:1029E000492F0E944A078BA5982F917081E062E0E1
:1029F000492F0E944A0780E067E041E00E944A07B1
:102A000080E090E0A0E2B1E48B879C87AD87BE8731
:102A10006B857C858D859E8520E030E04AE753E418
:102A20000E941702DC01CB018F839887A987BA87A0
:102A30006F81788589859A8520E030E040E85FE302
:102A40000E94710388232CF481E090E09E838D83A3
:102A50003FC06F81788589859A8520E03FEF4FE7F9
:102A600057E40E94110318164CF56B857C858D8503
:102A70009E8520E030E040E251E40E941702DC0134
:102A8000CB01BC01CD010E944100DC01CB019E8342
:102A90008D830FC089E190E09C838B838B819C8127
:102AA0000197F1F79C838B838D819E8101979E8393
:102AB0008D838D819E81009769F714C06F81788521
:102AC00089859A850E944100DC01CB019E838D831C
:102AD0008D819E819A83898389819A810197F1F7FB
:102AE0009A83898380E067E040E00E944A07AB96C2
:102AF0000FB6F894DEBF0FBECDBFCF91DF91089522
:102B0000DF93CF9300D000D0CDB7DEB79C838B830B
:102B100081E08A838B819C81009709F1198211C021
:102B20008981282F332727FD30958B819C81FC01DB
:102B3000E20FF31F80810E9423138A8389818F5FB4
:102B400089838981282F332727FD30958B819C81AC
:102B5000FC01E20FF31F8081882311F702C082E09D
:102B60008A838A810F900F900F900F90CF91DF9101
:102B70000895DF93CF9300D00F92CDB7DEB78A834D
:102B80006B838A81882319F48B81898306C08A81AB
:102B9000813019F48B81805C8983898180680E94EF
:102BA00046130F900F900F90CF91DF910895DF9310
:102BB000CF93CDB7DEB727970FB6F894DEBF0FBE21
:102BC000CDBF9C838B836D834E832F838D81882F14
:102BD00090E0880F991F880F991F880F991F8A838B
:102BE0008A81805C0E944613198219820EC08981F5
:102BF000282F30E08B819C81FC01E20FF31F808144
:102C00000E94231389818F5F89838981883078F3BB
:102C10008E816F810E94B9158D810E9423132796A2
:102C20000FB6F894DEBF0FBECDBFCF91DF910895F0
:102C3000DF93CF93CDB7DEB7A7970FB6F894DEBF7B
:102C40000FBECDBF6CA37DA38EA39FA38CA19DA11E
:102C5000AEA1BFA10097A105B10509F461C08CA187
:102C60009DA1AEA1BFA1BB2394F48CA19DA1AEA157
:102C7000BFA1B095A095909581959F4FAF4FBF4F45
:102C80008CA39DA3AEA3BFA38DE20E942313CE010C
:102C9000039680969A838983E981FA8110828981DB
:102CA0009A8101979A83898329C08CA19DA1AEA1A5
:102CB000BFA12AE030E040E050E0BC01CD010E941D
:102CC0008918DC01CB01805DE981FA8180838981EB
:102CD0009A8101979A8389838CA19DA1AEA1BFA1FE
:102CE0002AE030E040E050E0BC01CD010E948918AC
:102CF000DA01C9018CA39DA3AEA3BFA38CA19DA1A2
:102D0000AEA1BFA10097A105B10579F689819A818D
:102D100001969A83898389819A810E94801504C0D3
:102D200080E690E00E948015A7960FB6F894DEBF6B
:102D30000FBECDBFCF91DF910895DF93CF93CDB775
:102D4000DEB781E00E944613CF91DF910895DF93B3
:102D5000CF93CDB7DEB781E060E00E94B915CF9187
:102D6000DF910895DF93CF9300D0CDB7DEB79A837C
:102D7000898389819A8120E137E2B9010E94621832
:102D800028EE33E0B9010E946218CB01805D0E94F9
:102D9000231389819A8128EE33E0B9010E946218D9
:102DA00024E630E0B9010E946218CB01805D0E94E8
:102DB000231389819A8124E630E0B9010E946218C8
:102DC0002AE030E0B9010E946218CB01805D0E94C8
:102DD000231389819A812AE030E0B9010E946218A8
:102DE000805D0E9423130F900F90CF91DF91089583
:102DF000DF93CF93CDB7DEB76B970FB6F894DEBFF6
:102E00000FBECDBF0E94CD050E94E20B0E944E0A6C
:102E1000198ECE014996988F8F8B1E8A1D8A1C8A27
:102E20001B8A198A188A1F868F89988D0E94AB0A7F
:102E3000EF89F88D8081898F898D8F3FA9F3898DE6
:102E40000E949B058823E1F1898D882F90E0C0972F
:102E5000AA2797FDA095BA2FBC01CD010E94181694
:102E60008F858823A9F48D899E899C01220F331FA9
:102E7000C901880F991F880F991F280F391F898D45
:102E8000882F90E0C097820F931F9E8B8D8BCCCFA5
:102E90008F85882349F28B899C899C01220F331FDF
:102EA000C901880F991F880F991F280F391F898D15
:102EB000882F90E0C097820F931F9C8B8B8BB4CF91
:102EC000898D0E94B105882349F0898D0E942313C2
:102ED000898D8A8B8F858F5F8F87A6CF898D8D3364
:102EE00009F0E9C00E949D1680E060E00E94B915DB
:102EF0008A89282F30E03B8F2A8F4A8D5B8D4B3299
:102F00005105B9F08A8D9B8D8C3291053CF42A8D48
:102F10003B8D2A32310509F4A8C0B5C04A8D5B8DBE
:102F20004D32510579F08A8D9B8D8F32910599F044
:102F3000AAC08D899E892B893C89820F931F998B0A
:102F4000888BA1C08D899E892B893C89821B930B1C
:102F5000998B888B98C08B899C89009709F07AC0DF
:102F600082E690E00E94801580E090E0A0EAB1E463
:102F70008B879C87AD87BE876B857C858D859E857D
:102F800020E030E04AE753E40E941702DC01CB0165
:102F90008F839887A987BA876F81788589859A8575
:102FA00020E030E040E85FE30E94710388232CF4C6
:102FB00081E090E09E838D833FC06F817885898515
:102FC0009A8520E03FEF4FE757E40E94110318165F
:102FD0004CF56B857C858D859E8520E030E040E258
:102FE00051E40E941702DC01CB01BC01CD010E941B
:102FF0004100DC01CB019E838D830FC089E190E00D
:103000009C838B838B819C810197F1F79C838B83BD
:103010008D819E8101979E838D838D819E810097F6
:1030200069F714C06F81788589859A850E9441006F
:10303000DC01CB019E838D838D819E819A83898360
:1030400089819A810197F1F79A8389830E949D165D
:103050001F8619C08D899E892B893C89B9010E94E0
:103060007618CB01998B888B0EC08D899E892B8910
:103070003C89AC01429FC001439F900D529F900D2F
:103080001124998B888B8B899C89009751F08889B2
:103090009989AA2797FDA095BA2FBC01CD010E945E
:1030A0001816888999899E8B8D8B198A188A1C8A93
:1030B0001B8A1A8AB9CE898D833609F0B5CE0E9453
:1030C0009D16B2CEAA1BBB1B51E107C0AA1FBB1F96
:1030D000A617B70710F0A61BB70B881F991F5A95A4
:1030E000A9F780959095BC01CD01089597FB092E15
:1030F00007260AD077FD04D0E5DF06D000201AF4B9
:10310000709561957F4F0895F6F7909581959F4F43
:10311000089597FB092E05260ED057FD04D014D034
:103120000AD0001C38F450954095309521953F4FBA
:103130004F4F5F4F0895F6F7909580957095619584
:103140007F4F8F4F9F4F0895A1E21A2EAA1BBB1BE2
:10315000FD010DC0AA1FBB1FEE1FFF1FA217B30763
:10316000E407F50720F0A21BB30BE40BF50B661F79
:10317000771F881F991F1A9469F76095709580953D
:1031800090959B01AC01BD01CF0108952F923F9214
:103190004F925F926F927F928F929F92AF92BF9267
:1031A000CF92DF92EF92FF920F931F93CF93DF9313
:1031B000CDB7DEB7CA1BDB0B0FB6F894DEBF0FBE70
:1031C000CDBF09942A88398848885F846E847D84BD
:1031D0008C849B84AA84B984C884DF80EE80FD80BF
:1031E0000C811B81AA81B981CE0FD11D0FB6F89435
:0E31F000DEBF0FBECDBFED010895F894FFCFF6
:1031FE0030004552524F52202121000000000000A5
:10320E000000000001020300010203020202020399
:10321E000303033738392F3435362A3132332D63D1
:04322E00303D2B0004
:00000001FF
